:020000040800F2
:1000000000000120A97E0008F57E0008014C0008D0
:10001000074C00080D4C0008134C000800000000BD
:10002000000000000000000000000000C5050008FE
:10003000F57E0008000000005D0600086D0600085F
:10004000F57E0008F57E0008F57E0008F57E0008C4
:10005000F57E0008F57E0008F57E0008F57E0008B4
:10006000F57E0008F57E0008F57E0008F57E0008A4
:10007000F57E0008F57E0008F57E0008F57E000894
:10008000F57E0008F57E0008F57E000800000000FF
:10009000000000000000000000000000F57E0008E5
:1000A000F57E0008F57E0008F57E0008F57E000864
:1000B000F57E0008F57E0008F57E0008F57E000854
:1000C000F57E0008F57E0008F57E0008F57E000844
:1000D000F57E0008F57E0008F57E000800000000AF
:1000E000F57E0008F57E0008F57E0008000000009F
:1000F000000000000000000000000000F57E000885
:1001000000000000F57E0008F57E0008F57E00087E
:1001100000000000000000000000000000000000DF
:10012000F57E0008F57E0008F57E0008F57E0008E3
:10013000F57E000800000000000000000000000044
:10014000000000000000000000000000F57E000834
:10015000F57E0008F57E0008F57E0008F57E0008B3
:10016000F57E0008F57E0008000000000000000099
:10017000000000000000000000000000000000007F
:1001800000000000F57E00080000000000000000F4
:10019000F57E000810B5054C237833B9044B13B134
:1001A0000448AFF300800123237010BDA00B002092
:1001B0000000000004CE000808B5034B1BB1034942
:1001C0000348AFF3008008BD00000000A40B00202E
:1001D00004CE0008A3F5803A704700BF174B002BF0
:1001E00008BF134B9D46FFF7F5FF00218B460F46D6
:1001F0001348144A121A0AF025F90E4B002B00D0AE
:1002000098470D4B002B00D0984700200021040098
:100210000D000D48002802D00C4805F0D5F809F073
:10022000D7FC2000290002F011F805F0E1FA00BF28
:100230000000080000000000A921000800000120C3
:10024000A00B002038330020C95300080000000034
:10025000014B01221A7070474C0D0020014B002207
:100260001A7070474C0D0020014B01221A70704724
:10027000500D0020014B00221A707047500D0020D5
:10028000014B01221A7070474D0D0020014B0022D6
:100290001A7070474D0D0020014B01221A707047F3
:1002A0004E0D0020014B00221A7070474E0D0020A9
:1002B000014B01221A7070474F0D0020014B0022A4
:1002C0001A7070474F0D002003681847044BC36035
:1002D00003460A6843F8042B002242605A607047C4
:1002E000C902000800B56548654D664E89B0022117
:1002F00002F060F96448022102F05CF963480221CF
:1003000002F058F96248022104AC02F053F9614846
:10031000022102F04FF9604B0393204603A9FFF737
:10032000D5FF079B009394E80E00544802F050F963
:100330005A4B0393204603A9FFF7C8FF079B00937E
:1003400094E80E004D4802F060F9554B03932046A7
:1003500003A9FFF7BBFF079B009394E80E004A48F0
:1003600002F036F94F4B0393204603A9FFF7AEFF87
:10037000079B009394E80E00434802F046F94A4B6D
:100380000393204603A9FFF7A1FF079B009394E87E
:100390000E003E4802F01CF9444B0393204603A98B
:1003A000FFF794FF079B009394E80E00374802F094
:1003B0002CF93F4B0393204603A9FFF787FF079BC8
:1003C000009394E80E00324802F002F9394B03938F
:1003D000204603A9FFF77AFF079B009394E80E00DD
:1003E0002B4802F012F9344B0393204603A9FFF780
:1003F0006DFF079B009394E80E00264802F0E8F892
:100400002E4B0393204603A9FFF760FF079B009341
:1004100094E80E001F482A4C02F0F7F82B78012BC5
:1004200004D100220A21204604F018F93378012B68
:1004300004D100229521204604F010F9214B1B78AD
:10044000012B04D100229421204604F007F91E4B11
:100450001B78012B04D100229621204604F0FEF8DF
:100460001A4B1B78012B04D100229721204604F05F
:10047000F5F8962005F0ECFAD0E700BFBC0B0020A1
:100480004C0D00204E0D0020FC0C00200C0C002018
:100490005C0C0020AC0C0020510200085D0200083A
:1004A0006902000875020008810200088D02000838
:1004B00099020008A5020008B1020008BD02000868
:1004C000540D00204F0D00204D0D0020500D002038
:1004D00073B5304E304C314D0021304602F048F8B3
:1004E00030462F4E2246294604F06CFF0621304646
:1004F00002F03EF830462B4E2246294604F062FFB9
:100500000121304602F034F83046274E2246294673
:1005100004F058FF0321304602F02AF83046234EFB
:100520002246294604F04EFF0221304602F020F810
:100530002246294630461E4D04F044FF0122112375
:10054000CDE9003211462123284604F049F822461D
:1005500018492846184D04F035FF0026174B2B602C
:1005600031462E6105F1400005F010FD05F1540003
:1005700005F0AAFC2846009633464FF48052182115
:1005800005F07AFD0E492246284602B0BDE87040CB
:1005900004F018BFBC0B002098010020352500088E
:1005A000FC0C00200C0C00205C0C0020AC0C00208B
:1005B000540D002041450008C01100200CC900085E
:1005C000D16000081EF0040F0CBFEFF30880EFF3BA
:1005D0000980816911F8021C91BB01B590E80F10E8
:1005E000E047BDE800508CE80300244B93E8060088
:1005F000914208BF704741B91EF0100F10D1204939
:10060000086820F0010008600AE02CE9F00F1EF0F5
:10061000100F08BF2CED108AC1F838C081F822E015
:100620001A6092F82210906B61F0FF0E1EF0100F0E
:1006300008BFB0EC108AB0E8F00F80F3098870476B
:10064000104A13689942FAD801B552F821C00FC870
:10065000E047BDE80050CCF80000704701B501F05C
:10066000B5F8BDE80140EFF3098CBEE701B501F034
:1006700075F8BDE80140EFF3098CB6E7B001002042
:1006800034EF00E0A4B3000808B5014610B1132010
:1006900001F0B8FB002008BD08B5EFF305832BB9C6
:1006A000EFF3108313B9EFF3118333B16FF005004B
:1006B00000F00AF86FF0050008BDDFF808C000DFA1
:1006C000FAE700BF890600087047EFF310832BB9E3
:1006D000EFF31180003818BF0120704701207047E8
:1006E00070B5484C217A012900F08A8031B14FF071
:1006F000FF3001F08FFE4FF0FF3070BD424D9C2265
:1007000004F1080009F09EFED5E90B61EB68E36592
:100710002B8AA4F854303046AB68236400F0FEF80E
:1007200008B1C4F88060D5E90561304600F0F6F8FC
:1007300008B9D4F880606667D5E90761304600F0F3
:10074000EDF808B9D4F88060A667D5E909613046AC
:1007500000F0E4F808B9D4F88060E6676E6B3EB14B
:10076000D6E902233168304600F047F9C4F88460C6
:10077000AE6B3EB1D6E902233168304600F03DF958
:10078000C4F88860EE6B3EB1D6E90223316830468A
:1007900000F033F9C4F88C602E6C3EB1D6E9022328
:1007A0003168304600F029F9C4F890606E6C3EB1B3
:1007B000D6E902233168304600F01FF9C4F894608E
:1007C000AE6C3EB1D6E902233168304600F015F92F
:1007D000C4F89860EE6C3EB1D6E902233168304629
:1007E00000F00BF9C4F89C602D6D3DB1D5E90223F2
:1007F0002968284600F001F9C4F8A05001232372AB
:1008000000207AE79C0100203CB3000870B5264D1B
:100810002B7A012B07D06FF0060001F0FBFD4FF0A3
:10082000FF34204670BD01F0B5FB10B94FF0FF302A
:10083000F3E71E4A1E4E1F497068FF2382F82230DC
:1008400092F82230D26863F0FF03DB4314BFB3FA9F
:1008500083F32023C3F12003C2F30222934298BF03
:10086000531CFE2202FA03F3104ADBB2D37701F0E5
:100870005BFC04460028D9D101F092FC286101F00C
:1008800073FC0D4801F0FCF801F074F9336813F0C3
:10089000010F4FF0020303D083F314882B72C0E7DB
:1008A000032282F31488F9E79C01002000ED00E0A8
:1008B0003CB300086D060008B80100207047000036
:1008C00008B5FFF7FBFFEFF3058333B16FF00500C9
:1008D00001F0A0FD6FF0050008BDFFF7F6FE00284F
:1008E000F4D1DFF808C000DFF6E700BFE10600083A
:1008F00008B5EFF3058333B16FF0050001F08AFD11
:100900006FF0050008BDFFF7E0FE0028F4D1DFF826
:1009100008C000DFF6E700BF0D08000810B598B169
:1009200040EA010313F007030ED117290AD9016029
:10093000083910220C18846042600B5081684A60AC
:10094000C3600123184610BD0023FBE7F0B578B360
:1009500099B132F003032BD10F3121F0070700F1D9
:1009600008052B462D685C68E91A24F00304091B6E
:100970008F4204D929680029F3D10846F0BD4668A2
:1009800004683E4446602044083841688E4288BF6F
:10099000466058683A4318B95A6003F10801ECE719
:1009A00020F0030019181D504A6019600831E4E76F
:1009B0000021E2E730B590B1D9B1A1F1080500F10D
:1009C00008040022AC420BD151F8043C23F003048C
:1009D00043681B1B436042B941F8042C012030BD21
:1009E000236822463BB11C46ECE751F8083C1360F3
:1009F000F4E70846F3E71846F1E730B5C0B189B12E
:100A0000C2B1CBB10024C0E9014202FB01F41D19BF
:100A10000160C360436105611846013904D1A21A1F
:100A200099500121084630BD851805602846F4E735
:100A30000146F7E71146F5E71946F3E710B5034617
:100A4000A8B100F1140252E8000F10B9BFF32F8FC4
:100A500004E0016842E8001404B1F4E738B104335B
:100A600053E8002F511C43E8001404B1F8E710BD0F
:100A700030B5F0B1C3688B421BD803698B4218D9DB
:100A800000F114031A680A60BFF35F8F53E8002F68
:100A90000C689442F6D143E8001505B1F2E7043042
:100AA00050E8003F5A1E40E8002101B1F8E700205D
:100AB00030BD6FF00300FBE7EFF310832BB9EFF3CA
:100AC0001180003818BF0120704701207047036B68
:100AD00030B5E3B1CD780024DA78AA420FD31A46B4
:100AE000C1E901248AB19160A4B16160283050E865
:100AF000003F5A1C40E8002101B1F8E730BD5A68B8
:100B00001C46002AECD01346E6E7C162ECE7C1E9D7
:100B10000133C1620163E9E7D1E9013223B19A608F
:100B20008A681AB153607047C262F9E7036370477D
:100B3000F8B5877804468FB3C56801460027284674
:100B400005F10C06FFF7E8FF27703046FFF790FF2E
:100B5000AB68002B48D03046FFF770FF04460028F2
:100B600042D0284600F08CFF3A460646394601F04E
:100B700037F8304600F0E0FF6A6A8168064604F103
:100B80000C0009F0C5FBF9232370A770F368E3702C
:100B900021462846BDE8F840FFF799BF8568AB6855
:100BA000002BF5D05B78832BF2D1284600F068FF4C
:100BB0003A460646394601F013F8304600F0BCFFCD
:100BC00006466A6A806804F10C0109F0A1FBF3682B
:100BD0000BB1E2781A7000232370214605F10C0056
:100BE000BDE8F840FFF744BFF8BD00002DE9F84F1D
:100BF0008846074600B131B96FF00301002001F0CB
:100C000025FC002477E0CE1C26F003060C36B0FA53
:100C100080F104D0B6FA86F30B441F2BECDD06FB03
:100C200007FAF2B194683CB1A30702D1D368332B21
:100C300005D86FF00801E1E7D368002BF9D1D2E9BC
:100C40000453D2F800903DB115F0030B01D19A4541
:100C500054D96FF00901D1E7002BFAD11CB19B46A2
:100C60000CE091461546274BD3F8A000D8B1FFF70A
:100C7000E5FE0446A0B14FF0010B35BB214B00222D
:100C8000D86F5146FFF762FE0546C0B9BBF1000FB1
:100C900006D01C4BD3F8A000214658B1FFF7E8FE60
:100CA0006FF00401AAE7D3F8800001223421FFF796
:100CB0004DFEDEE7D3F88000FFF77CFEF0E75246FA
:100CC000002109F0BFFB4BF0020BFA232370002335
:100CD000C4E90983C4E90B33A36032462B4684F888
:100CE00002B0C4F80490394604F10C00FFF785FE09
:100CF000044B054A1A672046BDE8F88F002CE4D162
:100D0000B1E700BF9C010020310B00082DE9F04144
:100D10000C4617469846054618B10378FA2B00D1C1
:100D200041B928466FF0030101F090FB6FF003001A
:100D3000BDE8F0818368C3B15B78832B15D100F0E7
:100D40009FFE01220646002100F04AFF304600F0D7
:100D5000F3FE06466A6A8068214609F0D9FAF0680F
:100D60000028E5D007700020E2E705F10C00FFF74E
:100D700065FE064670B121466A6A0C3009F0C8FA71
:100D80000024F9233370B470F77031462846FFF71A
:100D90009EFEE8E7B8F1000F10D04146932001F025
:100DA00031F840B1074B2846596900F057FEEFF380
:100DB0000983C3E902476FF00100B9E76FF0020051
:100DC000B6E700BF9C01002010B500F1280353E8EE
:100DD000002F12B9BFF32F8F04E0511E43E8001417
:100DE00004B1F4E70AB9002010BDC06A012300284D
:100DF000F9D0821CD2E84F1FC2E8443F04B1F9E7A2
:100E000011F0FF0FF0D08068F1E700002DE9F0410C
:100E10000F4615469846044618B10378FA2B00D1C0
:100E200041B920466FF0030101F010FB6FF00300A1
:100E3000BDE8F081FFF7C8FF064600283AD001461A
:100E40002046FFF769FE626A06F10C01384609F098
:100E50005FFA0DB1F3782B70002504F10C073570A3
:100E600031463846FFF704FEA3680BB90020DFE7E0
:100E70003846FFF7E3FD06460028F7D0204600F08D
:100E8000FFFD29460746012200F0AAFE384600F081
:100E900053FE626A8168074606F10C0009F038FAD1
:100EA000F9233370B570FB68F37031462046FFF7C5
:100EB0000EFEDBE7B8F1000F10D04146832000F0B2
:100EC000A1FF40B1074B2046596900F0C7FDEFF381
:100ED0000983C3E902756FF00100A9E76FF0020012
:100EE000A6E700BF9C01002010B50446EFF3058380
:100EF00033B100206FF0050101F0A8FA002010BD09
:100F0000FFF7DAFD0028F4D1DFF808C0204600DF43
:100F1000F5E700BFED0B00082DE9F04106460F464E
:100F200090461C46EFF305834BB196B930466FF0FF
:100F3000030101F08BFA6FF00300BDE8F081FFF7C9
:100F4000BBFD0028F1D1DFF84CC03046234600DF5E
:100F5000F3E73378FA2BE9D1002FE7D0002CE5D165
:100F600006F10C00FFF76AFD054680B1726A39464A
:100F70000C3009F0CDF9F9232846C5E901762B702C
:100F8000AC7085F8038000F069FC2046D5E76FF06F
:100F90000200D2E70D0D0008F8B504460F461646CC
:100FA0001D46EFF3058343B18CB920466FF0030172
:100FB00001F04CFA6FF00300F8BDFFF77DFD00284B
:100FC000F2D1DFF848C020462B4600DFF4E7237853
:100FD000FA2BEAD1002FE8D0002DE6D12046FFF70A
:100FE000F3FE054670B100F10C01626A384609F063
:100FF0008FF90EB1EB7833702846EC6000F02EFCD0
:101000000020D9E76FF00200D6E700BF0D0E000800
:10101000EFF310832BB9EFF31180003818BF0120D4
:10102000704701207047000070B5A8B38468D0E90C
:1010300000566CB114F0030302D1C2681B2A1AD8FF
:101040006FF00801002001F0F1F90024204670BD86
:10105000C368002BF4D1124BD3F8940030B9D3F805
:10106000800001221C21FFF771FC01E0FFF7E6FC84
:10107000044660B10123F522A3700023C4E90233C2
:10108000C4E904332270E67065602376DEE76FF012
:10109000040101F0CBF9D9E705460646DBE700BFBE
:1010A0009C010020284B70B55D6904460E4635B999
:1010B0006FF0070101F0BAF94FF0FF3070BD10B1C9
:1010C0000378F52B07D020466FF0030101F0AEF94D
:1010D0006FF00300F2E7037E53B9C0E90353EB6AF4
:1010E000436103B11861EC62012323760020E5E738
:1010F000C278D1070DD5C168A9420AD1FF2B06D10C
:101100006FF00F0101F092F96FF00200D6E70133A2
:10111000EBE7002EF8D093070AD5E06895F9203068
:1011200090F920209A4203DA80F8203000F0BAFCCF
:101130003146532000F066FE18B12946204600F0E3
:101140008DFC6FF00100B9E79C01002038B52F4BF2
:101150005A69044632B96FF0070101F067F94FF0A0
:10116000FF3038BD10B10378F52B07D020466FF063
:10117000030101F05BF96FF00300F2E7037E33B97E
:101180006FF00E0101F052F96FF00200E9E7C1685B
:10119000914202D06FF00D01F4E7013BDBB2037620
:1011A00033BB43690BB101691961216911B34B610B
:1011B000E3789B0705D592F92110D36AE3B982F849
:1011C0002010A3688BB1204600F05AFC002205468F
:1011D000114600F005FD00232361EB6AE5606361C1
:1011E00003B11C610123EC622376002000F0CCFCEB
:1011F0000020B6E7D362DBE7986820B190F92000C1
:101200008142B8BF01465B69D8E700BF9C0100205E
:1012100070B5044610B10378F52B07D020466FF067
:10122000030101F003F96FF0030070BD037ED3B139
:101230006369C0680BB122691A6122691AB35361EC
:10124000E3789B070BD590F92130C26AEAB990F98F
:1012500020209A4203D080F8203000F023FCA068C0
:10126000E0B900F091FCA078002610F00100267093
:10127000DBD0124BD3F894502146C5B12846FFF776
:10128000F7FB3046D1E7C362DAE7916821B191F903
:1012900020108B42B8BF0B465269D7E7204600F0BA
:1012A000EFFB00226FF0020100F09AFCD7E7D3F8C1
:1012B0008000FFF77FFB2846B7E700BF9C010020B6
:1012C0002DE9F0410446002601270CB9BDE8F08164
:1012D000E378D4F814801B0712D5A36826767BB177
:1012E000204600F0CDFB00220546114600F078FCB8
:1012F000EB6A6361C4E9035603B11C61EC622776B3
:101300004446E2E710B4C3789B071AD5C06890F949
:101310002130C26A94688C4208BF8C6824B194F969
:101320002040A342B8BF23465269002AF2D190F967
:1013300020209A4205D080F820305DF8044B00F060
:10134000B1BB5DF8044B704708B50246EFF3058367
:1013500033B100206FF0050101F068F8002008BDEE
:10136000FFF756FE0028F4D1DFF808C0104600DF72
:10137000F5E700BF2910000808B50246EFF3058322
:101380003BB110466FF0050101F050F86FF0050019
:1013900008BDFFF73DFE0028F3D1DFF808C0104676
:1013A00000DFF5E7A510000808B50246EFF3058356
:1013B0003BB110466FF0050101F038F86FF0050001
:1013C00008BDFFF725FE0028F3D1DFF808C010465E
:1013D00000DFF5E74D11000808B50246EFF305837D
:1013E0003BB110466FF0050101F020F86FF00500E9
:1013F00008BDFFF70DFE0028F3D1DFF808C0104646
:1014000000DFF5E711120008EFF310832BB9EFF3BB
:101410001180003818BF01207047012070470C3040
:10142000D0E85F3F13B9BFF32F8F04E05A1EC0E826
:10143000512F01B1F4E798B2003818BF012070476E
:1014400030B500F10C02C189D2E85F3F994202D861
:10145000BFF32F8F04E05C1CC2E8554F05B1F3E7E2
:10146000C0899BB2984294BF0020012030BD00008B
:10147000F8B515464FF6FE73421E9A4206460F46D1
:1014800001D8884207D26FF00301002000F0D4FF9A
:1014900000242046F8BD7DB1AC682A6844B114F040
:1014A000030302D1E9680F2922D86FF00801ECE7A5
:1014B000EB68002BF9D11546114BD3F8980080B199
:1014C000FFF7BCFA0446A8B10123A3700023F6225B
:1014D000A3600B4B22700B4A6560A781E6819A6678
:1014E000D7E7D3F8800001221021FFF72FFAE9E7B0
:1014F0001546EAE76FF0040100F09EFFC9E700BF60
:101500009C01002009150008836810B504465BB1F2
:10151000FFF785FF40B1204600F0B2FA0022BDE897
:101520001040114600F05CBB10BD38B5054610B147
:101530000378F62B07D028466FF0030100F07CFFFC
:101540006FF0030038BD84683CB100F099FA0122C5
:10155000002100F045FB0020F4E7FFF771FF38B9E8
:1015600028466FF0100100F067FF6FF00200E9E716
:101570002046E7E738B50D46044610B10378F62B50
:1015800007D020466FF0030100F056FF6FF0030014
:1015900038BDFFF744FF68B975B12946632000F0F4
:1015A00031FC20B1064B2046596900F057FA6FF024
:1015B0000100EDE70020EBE76FF00200E8E700BF75
:1015C0009C01002070B5054610B10378F62B07D0BA
:1015D00028466FF0030100F02FFF6FF0030070BD8D
:1015E000836863B1284600F04BFA00226FF00201D5
:1015F00000F0F6FAA8680028F4D100F0C5FAAB783C
:10160000002613F001032E700FD0094BD3F8984039
:10161000294624B12046FFF72BFA3046DFE7D3F8FE
:101620008000FFF7C7F92046D9E71846D7E700BF83
:101630009C01002010B50446EFF3058333B1002070
:101640006FF0050100F0F8FE002010BDFFF7DCFE92
:101650000028F4D1DFF808C0204600DFF5E700BF1E
:101660007114000808B50246EFF3058343B182B94F
:1016700010466FF0030100F0DFFE6FF0030008BDBD
:10168000FFF7C2FE0028F2D1DFF824C0104600DFC9
:10169000F5E71378F62BEBD10029E9D11046FFF7D7
:1016A000BEFE002814BF00206FF00200E7E700BF75
:1016B0007515000810B50446EFF3058343B184B9EE
:1016C00020466FF0030100F0B7FE6FF0030010BD7D
:1016D000FFF79AFE0028F2D1DFF830C0204600DF85
:1016E000F5E72378F62BEBD12046FFF7A9FE20B1D2
:1016F000204600F0B3F80020E9E720466FF0100123
:1017000000F09AFE6FF00200E1E700BF2B15000821
:1017100008B50246EFF305833BB110466FF00501B3
:1017200000F08AFE6FF0050008BDFFF76DFE00288F
:10173000F3D1DFF808C0104600DFF5E7C515000853
:1017400010B5D0E85F3F5A1C914200D80022C0E893
:10175000542F04B1F5E798B210BD000038B51A4C0B
:1017600000F018FDE3680133E360236D03B198478F
:1017700000F0B2F9002000F007FA236C1BB3A26B53
:10178000A1698A4202D0A163E3631CE0E36BB3B9B1
:10179000237A022B17D1656AADB195F9201092F921
:1017A000203099420FD1284600F073F9A06B00F069
:1017B0008BF9284600F0DEF9236CA563E4E7013BD2
:1017C000E363002BE4D038BD9C01002070B5224CAF
:1017D00004F1560504F15A06B4F85410D5E85F3FF9
:1017E00013B9BFF32F8F04E05A1EC5E8502F00B184
:1017F000F4E79BB25BB33046FFF7A2FFE36D53F80B
:10180000200020B30378F13B082BE5D801A252F861
:1018100023F000BF39180008D91700083F18000846
:10182000D9170008D91700084318000847180008FE
:10183000D91700084B180008236E9847CCE7636E51
:10184000FBE7A36EF9E7E36EF7E7236FF5E7BDE883
:101850007040002000F098B99C01002070B5164C33
:101860000546B4F8541004F15602D2E85F3F99429D
:1018700002D8BFF32F8F04E0581CC2E8560F06B100
:10188000F3E79BB2994205D829460220BDE8704093
:1018900000F082BD04F15800FFF752FFE36D43F8FA
:1018A0002050637A23B9054B4FF080525A6070BDC7
:1018B0000123A372FBE700BF9C01002000ED00E0C4
:1018C000EFF310832BB9EFF31180003818BF01201C
:1018D0007047012070470378F12B00D07047C06833
:1018E000F9E7000010B50A4A90F92010012343706F
:1018F000536A1C321BB193F920408C4205DCC0E9CD
:101900000232906003B1D86010BD1A469B68F1E7BF
:101910009C010020014B5869704700BF9C010020CA
:1019200008B500F099FDDFF810C000DF4FF0FF317F
:10193000002000F075FDFEE76D1E0008930710B54E
:1019400002F0010422D400F1280384B153E8000F0F
:1019500000EA01028A4203D0BFF32F8F002005E086
:1019600020EA010243E8002404B1EFE710BD53E888
:10197000000F084203D1BFF32F8F002005E020EABB
:10198000010243E8002404B1F1E7EFE7806A01EACD
:1019900000031CB1994218BF0020E7E7002B08BFE5
:1019A0000020E3E710B5084A136B00213BB94FF064
:1019B000FF34C0E90431C46121B1086110BD19468A
:1019C0001B69F3E71063F9E79C01002010B5C469B7
:1019D000621CD0E904310AD103B1596142691AB1DC
:1019E00013610023436101E0064A136310BD1BB17C
:1019F000DA6959612244DA614269002AF0D1014A68
:101A0000D362F3E79C01002010B5002303808378A4
:101A10009A07044608D513F0100F016B0E4B0FD038
:101A2000D3F88400FFF724F8A378DB0712D50A4B1C
:101A3000D3F88800214638B1BDE81040FFF718B848
:101A4000586FFEF7B7FFEFE7BDE81040D3F880000E
:101A5000FEF7B0BF10BD00BF9C01002010B591F98A
:101A6000202083681BB193F92040944205DAC1E934
:101A70000230816003B1D96010BD18469B68F1E760
:101A800083689A68826002B1D0600022DA601846EA
:101A90007047C2682AB18368936003B1DA6000239B
:101AA000C360704710B50146044664B12378F12B3A
:101AB00007D00846FFF7EDFF2046BDE81040FFF7CE
:101AC000CDBFE468F1E710BD012301464370014832
:101AD000FFF7C4BFB801002038B5164DEC6A44B317
:101AE000E369013BE36123BB6378732B06D009D81C
:101AF000532B0BD003F0DF03432B0DD12046FFF710
:101B0000EAFE09E003F0EF03832BF6E72046FFF738
:101B1000E2FE2146FFF7F6FB2046FFF7BAFFFFF78C
:101B2000D3FF246924B1E369002BDDD00023636176
:101B3000EC6238BD9C01002090F82230826B13F0DB
:101B4000100F0CBF6020202010447047074B5969CC
:101B500051B10B6B8A6B934203D21A68044B9A42C1
:101B600002D0012000F018BC704700BF9C0100208B
:101B7000A52E5AE208B502234370024B9861FFF785
:101B8000E5FF08BD9C01002010B5144B04461A7AED
:101B90005969A0B9022A1FD15C6AECB194F92020DE
:101BA00091F920309A4217DD2046FFF772FF084670
:101BB000FFF798FE2046BDE81040FFF7DBBF022A82
:101BC00005D190F9202091F920309A42EFDC20468F
:101BD000BDE81040FFF778BF10BD00BF9C0100209A
:101BE00038B504461546FFF7A7FF01602046FFF70A
:101BF000EDFE1DB1BDE83840FFF7C6BFBDE8384077
:101C0000FFF762BF10B54378332B04460CD1416A0D
:101C100090F82320FFF792FE014628B120460022CB
:101C2000BDE81040FFF7DCBF10BD00002DE9F04F0C
:101C300085B08146029128B96FF0030100F0F0FBF6
:101C40000024BCE0002A45D0966846B1B40702D112
:101C5000D368432B06D86FF008010020EEE7D36865
:101C6000002BF8D1D2E9044597693CB1600702D155
:101C7000002D40F0B2806FF00A01EEE72FB17B1E1D
:101C8000372B03D96FF00B01E7E71827002D40F041
:101C9000A880D2E900A301934EBB554BD3F888002E
:101CA000F0B1FEF7CBFE064600283AD04FF001080F
:101CB000002C44D1DFF838B1E5B94E4ADBF8840096
:101CC000556DB8B1FEF7BAFE0246E0B148F0100813
:101CD000344623E092461446182715460192DCE765
:101CE000D3F8800001224421FEF730FEDBE74FF0FD
:101CF0000008DDE72246DBF874002946FEF726FEE1
:101D000002460028E4D1B8F1000F16D0DBF8882095
:101D100052B110463146FEF7ABFE002248F00208F1
:101D20007CB96FF0040198E7DBF88000039231463C
:101D3000FEF740FE039A1446F0E74246EEE72246DD
:101D4000344640F2F1132380019BE3700023C4E981
:101D50000233C4E90433C4E90633C4E90933C4E9EE
:101D60000B32A5F140031344C4E90E397FB2224B74
:101D700084F80280FD21C4F804A084F8207084F85F
:101D800021706184656313601A4B1B685B071AD46A
:101D9000A36B00201A4603F1340143F8040B994267
:101DA000FBD1164BC2E90D394FF08073D363029B10
:101DB00013620F4B124A1A662046FFF7E5FE2046D3
:101DC00005B0BDE8F08FAD08113D4FF0CC33002DCC
:101DD000DED042F8043F013DF9E7002F7FF44FAF1A
:101DE000182769077FF447AF472D3FF652AF42E708
:101DF0009C0100203CB30008A52E5AE221190008DE
:101E0000051C000838B5174A137A022B04461546FC
:101E100026D1506A58B150694B1C447008D1FFF765
:101E2000C1FD1148FFF72CFEFFF7A4FE012038BDCD
:101E3000D36A002213B1DC69A1420BD2C0E904329B
:101E4000C1615AB11061002BEBD0DA695861511AA7
:101E5000D961E6E71A46091B1B69EBE7E862F2E77E
:101E60000020E4E79C010020B801002038B5154DA2
:101E70002B7A022B25D16B6A1BB36C69E06AFFF7E2
:101E80001FFAA06918B100221146FFF7A9FEEFF36F
:101E900009830D48A363FFF7F3FDFFF76BFE0023F3
:101EA0006B61E278D20704D42046BDE83840FFF7E2
:101EB000ABBD04226270E3606B6BA36003B1DC60B6
:101EC0006C6338BD9C010020B801002038B5044681
:101ED00010B10378F12B07D020466FF0030100F01A
:101EE0009FFA6FF0030038BD437803F00F03022B15
:101EF00025D0032B32D0012B35D1FFF7CAFDE06A84
:101F0000FFF7DEF9A06918B100221146FFF768FE5D
:101F10006378022B2AD1EFF309831C48A363FFF7F0
:101F2000AFFDFFF727FE1A4B00225A61E07810F050
:101F300001051FD12046FFF767FD0020D3E7144BB2
:101F40001A7A022A02D15B6A002BD8D16FF0020103
:101F5000204600F065FA6FF00200C4E7FFF799FD34
:101F6000FFF734FDCBE76FF00201F2E70020FFF747
:101F70000BFEDBE7042363700023E360044B5A6B22
:101F8000A26002B1D4605C63D7E700BFB801002053
:101F90009C01002038B50B4C0B48A26D0B4D002165
:101FA000FFF744FE636EA8624BB1E26D0848002162
:101FB000FFF73CFEA864003818BF012038BD01209F
:101FC000FCE700BF3CB30008912300089C010020FF
:101FD000ED20000810B50446EFF3058333B100206F
:101FE0006FF0050100F01CFA002010BDFFF768FC3F
:101FF0000028F4D1DFF808C0204600DFF5E700BF75
:102000002D1C000808B5EFF3058313B1054B586983
:1020100008BDFFF755FC0028F8D1DFF80CC000DF41
:10202000F6E700BF9C0100201519000810B5044612
:1020300000F01EFAEFF305833BB120466FF0050177
:1020400000F0EEF96FF0050010BDFFF739FC002835
:10205000F3D1DFF808C0204600DFF5E7CD1E000809
:102060000C4A536C30B5002413B11D698D420AD956
:10207000C0E9024301611BB11D699860691A1961C9
:102080002CB1E06030BD1C46491BDB68ECE75064B6
:10209000F8E700BF9C01002070B5134D6C6C04B3D1
:1020A0002369013B236101262369D3B9E3680BB19E
:1020B000A2689A606B640023E86C1A4604F1180168
:1020C000FEF72AFF18B12146032000F065F9E378F6
:1020D000012B07D161692046FFF7C2FF6C6C002C11
:1020E000E2D170BD6670F9E79C0100200B4B0C4CEF
:1020F00007B51A6E586E0821FEF7F6FE094AE0642D
:102100002265E06C4FF0FF3300226946FEF744FF82
:102110000028F6D1DDE900309847F2E73CB300082B
:102120009C01002099200008A8B10C4B1B68B3FB50
:10213000F0F00138B0F1807F0DD2094BFF2283F817
:102140002320A3F54F6306221A6058600020986090
:10215000044B187070474FF0FF3070475003002059
:1021600000ED00E0C8180020074B1A782AB10022C1
:102170001A70064B4FF080625A60054A136843F0AC
:1021800001031360704700BFC818002000ED00E095
:1021900010E000E0014B1B68704700BF10E000E05A
:1021A0004FF0FF307047000008B5094B094A1A602C
:1021B000094B9B1A094A1360094B0A4A1A600A4BD9
:1021C0009B1A0A4A136000F051F800F081F800BF32
:1021D0003019002000FC0020000001202C190020F4
:1021E000DC1A00203833002000FC0020D81A002020
:1021F0000E4838B50E4B03600B250E4B45601C2472
:10220000C4608360FFF7A0F80B4B18600B480C4BC1
:10221000C460C0E900350B4B8360FFF795F80A4BAB
:102220001860BDE8384007F0D3BC00BFFC180020A0
:1022300008B40008101900200C190020CC18002048
:1022400015B40008E0180020DC180020FEF74AB89A
:10225000024B4FF0FF311868FFF78EB80C190020C1
:10226000014B1868FFF7A0B80C19002008B502F060
:10227000F9FA0B4B0B4998684FF00053C21802F162
:102280006042126843F8042B8B42F7D1044B4FF0A5
:1022900000529A6006F01AFCBDE8084000F015B83C
:1022A00000ED00E0940100207047704708B500F091
:1022B00043F8FFF7F9FFFFF79BFFFFF7F6FF02F088
:1022C000CBFFBDE80840FFF7C1BFFEF7F9BA000039
:1022D000114C124B23614FF4805363614423E3603C
:1022E0000F4BA360182307B5A3610E480E4B236064
:1022F00022460021FFF76EFE034628B90B490090E5
:1023000022460B4802F0B0FFFEF7F2FA002309491B
:1023100000931A46F5E700BF8031002060210020BD
:1023200034190020AD2200082FB4000834B400088E
:102330001D01018050B400081FB5064B0FCB6C4641
:1023400084E80F002046FEF7FFFF034B186004B03F
:1023500010BD00BF68B400086031002073B50646A8
:102360000C46154602F07AFF58B906342ABF064BD0
:10237000064953F82410002300933246284602F001
:1023800073FF02B070BD00BF2CB6000880B5000816
:1023900008B500F081F8000007B50023421E009345
:1023A0000023042A19D8DFE802F003080C101400F7
:1023B0000C490D48012202F057FF0C490C4802223B
:1023C000F9E70C490C480322F5E70C490C480422B4
:1023D000F1E70C490C480522EDE702460B490C4891
:1023E000E9E700BF78B400082501028099B400082D
:1023F00026010280BEB4000827010280F3B4000861
:10240000280102802EB500082A0102806EB500085E
:1024100000010280014A0146FFF7A0BF310101809F
:10242000014AFFF79BBF00BF32010180014AFFF75D
:1024300095BF00BF3301018011F1110F02D0024A94
:10244000FFF78CBF704700BF34010180014AFFF7DE
:1024500085BF00BF3801018010B5FFF7D3FD034BE6
:102460001B6813B1BDE81040184710BD7819002053
:10247000024B1B6803B11847704700BF7819002052
:1024800008B502F063FD02F009FF02F008FFBDE8A5
:10249000084002F071BD000008B5024C236898475F
:1024A000FCE700BF40020020F8B50546064655F897
:1024B000044B8CB90D4F386818B14FF0FF31FEF75F
:1024C0005BFF346824B9284603F0FEFC2C463560D7
:1024D000386808B1FEF768FFAC4204D004490548EB
:1024E0008B2202F08BFC2046F8BD00BF603100203B
:1024F00044B6000878B60008036801221B69002171
:102500001847036800221B69114618476FF0150031
:1025100070470000C36810B52BB9044904484FF454
:10252000FD7202F06BFCBDE8104018479BB6000836
:10253000CBB6000810B5044B044640F8203B06F02B
:1025400093FA204610BD00BFE0B6000810B504465F
:10255000FFF7F0FF2046502103F06DF9204610BD33
:102560000346024A203006F09FB900BF4526000806
:1025700070B505460E4B45F8043B04460E461C223A
:102580000021284607F05EFF1022002104F1200000
:1025900007F058FF0023E363E36431462046FFF76A
:1025A000DFFF2846314602F0FEF8204670BD00BF2E
:1025B000E0B6000813B50446019102F0C7FC01998A
:1025C000201D06F08BF802B0BDE8104002F0D4BC2C
:1025D00084B070B505AD85E80E00044602F0B6FC87
:1025E000089A04F1200672B195E80F00303484E8AF
:1025F0000F0001223046012106F0E6F8BDE87040E8
:1026000004B002F0B9BCE263F4E784B070B505AD84
:1026100085E80E00044602F099FC089A04F12006B1
:1026200072B195E80F00403484E80F000122304673
:10263000022106F0C9F8BDE8704004B002F09CBC6D
:10264000E264F4E7012908B502D0022907D008BDE9
:10265000C36B002BFBD03030FFF75CFFF7E7C36C98
:10266000002BF4D04030F7E70020704700290CBF62
:102670006FF0180000207047012070476FF01500C0
:1026800070476FF01500704784B001A880E80E0015
:1026900004B0704730B5044685B002F057FC04F131
:1026A00008030FCB6D4685E80F00E0690023C4E9FD
:1026B000053308B103F090FC02F05EFC039B0BB104
:1026C0002846984705B030BD002204494260C0E961
:1026D00005220160C2610284704700BF38B700085C
:1026E00008B58369044A026023B1044904482622DC
:1026F00002F084FB08BD00BF38B70008E8B6000848
:1027000012B7000870B504460E4602F01FFCA5691A
:1027100045B100230122636184F82020E36184F83D
:102720002160A36102F028FC2DB121462846BDE8B6
:10273000704000F029B970BD08B103F0CDBB02F0C4
:1027400005BC08B103F0E6BB02F016BC2DE9F04170
:10275000044686B00E46174602F0F8FBA56902F063
:102760000BFC35B301AD0021284603F00FFC02F04D
:10277000EDFBD4E9068323B10F491048392202F05A
:102780003DFBE56102F0F8FBB8F1000F0ED03946D1
:10279000284603F003FC48B93046FFF7CDFF20463A
:1027A0000121FFF7AFFF3046FFF7CBFF284603F0CC
:1027B00016FC06B0BDE8F081E8B6000820B70008B6
:1027C0000022C0E9012201220160027370477047B4
:1027D0000346007B30B1D3E90020136898428CBFD8
:1027E0000020012070470123D0F800C02DE9F043FC
:1027F00003FA01F11F4682EA030E1CF823500D4232
:1028000004D005F030053AB1102D07D10133112B5A
:10281000F3D14FF0FF300FE0002DF7D05C00023C09
:10282000D0F8088042EA040607FA06F919EA080F08
:10283000ECD1202D02D03046BDE8F0834EEA0404EE
:1028400007FA04F414EA080FF5D0DFE770B50D4677
:1028500011462A4604461E46FFF7C5FF002802DA45
:102860000020207370BD21686368420801EB82017B
:10287000CD8849791D4406FB01510123616003FAAB
:1028800000F1A36842EAC0100B43A360C0B2E9E7BD
:1028900013460A460121FFF7D9BF13460A46002115
:1028A000FFF7D4BF13B50A46019100210446FFF794
:1028B000EFFF019A0021204602B0BDE81040FFF76B
:1028C000ECBF0022C0E900227047704700687047E3
:1028D00000230B60436813B90160416070471960C1
:1028E000FBE703682BB11A6802B94260026000225C
:1028F0001A601846704710B50468002223468B42C0
:1029000003D083B11A461B68F9E70AB10B6813605C
:102910008C4204BF0B68036043688B424FF0000396
:1029200008BF42600B6010BD10B50446FFF7C9FF39
:10293000204610BD70B505462846FFF7C7FF044680
:1029400078B150F8043C061F9B683046984740B168
:102950002846FFF7C6FF54F8043C3046DB6898472A
:10296000EAE770BD70B504460D46FFF7AFFFAC61F6
:102970000646291D2046FFF7ABFF26B92046BDE8D5
:102980007040FFF7D7BF70BD70B505460C46FFF726
:102990009DFF064604B1043421462846FFF7ABFFED
:1029A000A64204D12846BDE87040FFF7C3BF70BD02
:1029B00010B504462046FFF789FF28B150F8043CC3
:1029C0000438DB689847F5E710BD10B50446FFF7FB
:1029D000EFFF2046FFF779FF204610BD002070472B
:1029E00070477047704710B4D0E901320168541045
:1029F00001EB6200D20748BF0A595DF8044B48BF9B
:102A0000D3581847704703689B6D184770B586B058
:102A10000023CDF806308DF80A300389ADF8103068
:102A200040F201234FF48974ADF8123040F20313E1
:102A300090F820134268ADF80440ADF81430022439
:102A400000F10A038DF807408DF80B10039201ACDA
:102A500005AE1D46224603CAB242186059601446AC
:102A600003F10803F6D112881A80284606B070BD1B
:102A70000048704734BA0008004870476CBA000834
:102A80000048704738BA0008004870477EBA00080E
:102A90000048704764BA0008004870474EBA000802
:102AA000036810B504465B6F9847D4F8EC020368DE
:102AB0001B6F9847236820469B6FBDE8104018475E
:102AC00008B5D0F834332BB90349044840F2CB623F
:102AD00002F094F908BD00BF48B7000874B70008B9
:102AE00010B5044602F032FAD4F834330133C4F896
:102AF00034332BB90349044840F2B66202F07EF940
:102B000010BD00BF48B7000874B7000838B5D0F84A
:102B10003433012B044610D10025D4E9C93000F02C
:102B2000010203B94AB14110C4E9C95504EB600080
:102B30000AB16258D3589847EFE7D4F834332BB929
:102B40000649074840F2C46202F058F9013BC4F854
:102B50003433BDE8384002F00FBA00BF48B7000870
:102B600074B7000807B500230249034800931A46CA
:102B700002F07AFB80B700080E011580036873B578
:102B80000446DB6F9847B4F8F8120B12022B25D0DD
:102B9000032B56D0012B04D1236820461B6B98478A
:102BA00008B9002018E0236820461B6B9847067878
:102BB000122EF6D1236820461B6B98474578012DCD
:102BC000EFD12368C4F804631B6B2046984784F850
:102BD0000853C4F80003284602B070BD2368C9B288
:102BE0005B6B0191204698470028DAD02368019951
:102BF0005B6B2046984703780199092BD1D1236854
:102C000020465B6B984743780199022BC9D1236812
:102C100020465B6B9847236885785B6B019920465B
:102C20009847C378019945EA03252368C4F80453FB
:102C30005B6B20469847C4F80003012084F8080322
:102C4000CAE7C9B20529ACD8DFE801F0030F1923A0
:102C50002D37236820469B6B98470378C4F80433CC
:102C600023689B6B20469847E5E723682046DB6B8B
:102C700098470378C4F804332368DB6BF2E72368D2
:102C800020461B6C98470378C4F8043323681B6CF8
:102C9000E8E7236820465B6C98470378C4F8043360
:102CA00023685B6CDEE7236820469B6C98470378BB
:102CB000C4F8043323689B6CD4E723682046DB6C9C
:102CC00098470378C4F804332368DB6CCAE70B78B1
:102CD000DB0913700B78C3F3411353700B7803F0C7
:102CE0001F0393704B78D370C8788B7843EA002326
:102CF000938048790B7943EA0023D380C8798B7994
:102D000043EA002313817047036870B504465B6F84
:102D10000D46984794F80C33022B05D009490A4810
:102D200040F23D1202F06AF8084BC4F82433002345
:102D3000C4F82833236884F8105320469B6FBDE8FD
:102D40007040184748B70008A8B700080F320008BD
:102D500038B503680446DB6F984794F8083313B11D
:102D60000025284638BDD4F8EC0203685B6C984710
:102D7000D4F804239042F3D8D4F80013121A014473
:102D8000C4F80013C4F80423A2B994F80A53022328
:102D900084F80C3345B1236884F80A239B6E04F54C
:102DA0003D7120469847DCE701212046FFF7ACFF44
:102DB0000125D6E7D4F8EC02D4F820430368A242F8
:102DC0001B6C28BF22469847F2E70000036813B542
:102DD0000446DB6F984794F81C33012B06D8002378
:102DE0000F4900931A460F4802F03EFA94F80C334C
:102DF00023B100230C4900931A46F4E794F80B33EF
:102E0000032B0BD02046FFF7A3FF38B9D4F8EC0210
:102E10000368DB6C02B0BDE81040184702B010BD7B
:102E200080B700080E011580D3B7000838B50368D5
:102E30000446DB6F984794F80833012B3BD1D4F854
:102E4000045335B994F809330BB901252CE084F803
:102E50000953D4F82023D4F8EC02D4F80013036803
:102E6000954228BF15462A469B6C9847D4F80033F4
:102E7000D4F804232B44551BC4F80033C4F804537E
:102E8000002DE2D194F80923002ADED194F80A53E8
:102E9000022384F80C334DB1236884F80A239B6E17
:102EA00004F53D7120469847284638BD012120464B
:102EB000FFF72AFFC9E70025F6E7036810B50446C7
:102EC000DB6F984794F81C33012B01D8FFF74AFEBB
:102ED00094F80B33032B0AD02046FFF7A7FF30B935
:102EE000D4F8EC020368BDE81040DB6C184710BD55
:102EF000036870B504465B6F0D46984794F80C3331
:102F0000032B05D009490A484FF4C37201F076FF3C
:102F1000084BC4F824330023C4F82833236884F80A
:102F2000105320469B6FBDE87040184748B7000813
:102F30001DB80008EF3C000810B503680446DB6FBD
:102F40009847012004F21D33C4F80033C4F8040389
:102F500084F8080310BD036810B50446DB6F98477A
:102F600094F81C33042B01BFB4F82E33A4F8FA32C2
:102F7000012004F54C7303BFC4F80033C4F8040304
:102F800084F80803002010BD036810B5DB6F044609
:102F90009847042384F80C33236894F8F8221B6FB5
:102FA000B4F8FA1220469847012010BD036870B5A6
:102FB00004465B6F0D46984794F80C33042B05D0FC
:102FC00009490A484FF4EB7201F018FF084BC4F8A6
:102FD00024330023C4F82833236884F81053204690
:102FE0009B6FBDE87040184748B7000849B8000813
:102FF0009F320008036810B50446DB6F984794F8C9
:103000001C33042B02D0B4F8FA328BBB94F8F6329E
:10301000012B0FD0022B10D053BB164B01221A806C
:10302000144BC4F8003301200223C4F8043384F89D
:10303000080310BD0F4B0022F1E7B4F8FA2222F08A
:103040008F03ABB912F00F0F0A4902D100230B8096
:10305000E6E7530003F01E0343EAD213023B1822B3
:1030600002FB034393F830309B07EFD50123EEE7D3
:103070000020DEE77C19002010B50368044690B0FC
:10308000DB6F9847D4F8EC02D4F820230368694634
:10309000DB6B984704F53D7269462046FFF717FE43
:1030A0000023C4F80833C4E9C033012384F80C3387
:1030B000236811465B6E2046984710B010BD036828
:1030C00010B50446DB6F984794F81C33012B01D8E8
:1030D000FFF748FD94F80C23012384F82C3322B920
:1030E0002046BDE81040FFF7C7BF84F82D3310BD60
:1030F0002DE9F0411D46036804465B6F0F461646F6
:10310000984794F80C33012B05D00B490B4840F23B
:10311000BA2201F073FE0A4BC4F824330023C4F82A
:103120002833236884F81073C4E9C56520469B6F73
:10313000BDE8F041184700BF48B7000871B8000863
:10314000773B0008036810B50446DB6F9847B4F876
:10315000FC3293B394F8F40294F80823012825D1A3
:10316000012A06D0D4F8EC020368DB6CBDE81040FD
:103170001847D4F804239A4201D9C4F8043301282B
:10318000D4F8041326D18B4208D9D4F82033B1FBEC
:10319000F3F203FB12120AB984F80903022384F83C
:1031A0000B332046BDE81040FFF740BE002AD9D1BE
:1031B000D4F804239A42E2D0D4E7D4F8EC02D4F84D
:1031C00004230368002AD0D1032184F80B139B6CDD
:1031D00011460DE0D4F8EC02D4F82023012384F842
:1031E0000B3303688A4228BF0A461B6CD4F80013CD
:1031F000BDE81040184710B503680446DB6F9847D8
:10320000002384F82D33032384F80B3310BD0368A7
:1032100010B5DB6F04469847002284F80C2394F81D
:103220002D2394F8103322B12046BDE81040FFF75B
:10323000E2BF33B9D4F8EC020368BDE81040DB6CA0
:10324000184794F80B33012B0AD1D4F8EC0203236E
:1032500084F80B3303689B6CBDE810401146184797
:10326000022B07D1D4F8EC02032384F80B33036854
:103270001B6CF1E710BD036810B5DB6F044698477F
:10328000002384F82C3394F80C3323B92046BDE88E
:103290001040FFF7B0BF012384F82D3310BD036841
:1032A00010B5DB6F04469847002284F80C2394F88D
:1032B0002D2394F8103322B12046BDE81040FFF7CB
:1032C0009ABF63B1B4F8FA32A4F82E33B4F8F832E6
:1032D00084F830332046BDE81040FFF733BFD4F800
:1032E000EC020368BDE81040DB6C1847036810B5BA
:1032F00004465B6F984794F8F03283B9D4F8EC0237
:10330000036821469B689847D4F8EC020368402183
:103310009B6B98470123C4F8200384F8F03223689C
:1033200020469B6FBDE81040184738B50368044637
:103330005B6F984794F81C53236820469B6FEDB24F
:1033400098472B1F5842584138BD036810B55B6F32
:10335000044698472046FFF7C9FF94F8F1323BB97D
:10336000D4F8EC0203685B699847012384F8F132D2
:10337000236820469B6FBDE8104018472DE9F04FA9
:10338000914685B0026803930C46526F06469047FB
:1033900014F0700F03D114F00F0F039B06D100231C
:1033A0002649274800931A4601F05EFF96F8F282FC
:1033B000B8F1000F07D1336830469B6F98474046FD
:1033C00005B0BDE8F08F650005F01E0545EAD4158F
:1033D000AF1E4FF0180B0BFB076797F830A01AF0E1
:1033E000010A05D01749184840F26E4201F006FD67
:1033F000B9F5806F04D91349144840F26F42F5E7DC
:10340000D6F8EC0202682146D2F850804A46C047FE
:1034100080460028CFD00EAB0FCB6C1E0BFB046494
:10342000043484E80F0097F8303087F831A043F077
:10343000010387F83030A7F82C90BCE794B8000857
:103440000401158048B70008B3B80008D5B80008D3
:1034500003682DE9F0415B6B884611460446164629
:103460009847002833D0236831465B6B2046984745
:103470000378092B2BD1236831465B6B2046984794
:103480004378022B23D1236831465B6B2046984753
:10349000236887785B6B314620469847C37847EAB4
:1034A00003270B2F13D9236831465B6B20469847BF
:1034B00000F109056B7843450AD02B781D44236839
:1034C00031465B6B2046984738448542F2D300254D
:1034D0002846BDE8F081D0F8EC0203685B6B184722
:1034E000F8B50F461A49044640F81C1B002506464D
:1034F00004F53B71F5601836B142FBD1E380BDF8AD
:1035000018302381A28000214FF4347206F09AFF14
:103510002822002104F53D7006F094FF0123C4E940
:10352000C855C4E9CA5584F80C53C4F8EC72A4F821
:10353000F05284F8F252C4F8345384F8305384F8CB
:103540001C3384F81D5384F81E532046F8BD00BF79
:10355000B4B900080368F7B55B6F0E460546984797
:1035600036F08F0701D1320706D1002317491848DA
:1035700000931A4601F078FE740004F01E0444EA39
:10358000D6141823023C03FB045494F83030DB07B4
:1035900009D42846FFF7C9FE80B10E490E4840F213
:1035A0008A5201F02BFC94F831303BB1D5F8EC0293
:1035B00003683146DB6E984784F831702B689B6F47
:1035C000284603B0BDE8F040184700BF94B8000893
:1035D0000401158048B70008EDB80008036873B50A
:1035E0005B6F0E460446984716F0700F01D1310705
:1035F00006D100231A491B4800931A4601F034FEF5
:10360000750005F01E0545EAD6151823023D03FB9B
:10361000054595F83030DA0709D42046FFF785FED6
:10362000B0B11149114840F2CA4201F0E7FB43F042
:10363000020385F83030D4F8EC02036831469B6D04
:10364000984795F831301BB131462046FFF782FF8D
:1036500023689B6F204602B0BDE87040184700BF4A
:1036600094B800080401158048B70008EDB80008B8
:10367000036810B50446DB6F984794F81C33042B9D
:1036800002D0B4F8FA32A3B994F8F632022B10D172
:10369000B4F8FA1231F08F000BD111F00F030AD0F9
:1036A000B4F8F83223B92046C9B2FFF797FF0120DA
:1036B00010BD0020FCE71846FAE70000036873B568
:1036C0005B6F0E460446984716F0700F01D1310724
:1036D00006D100231C491D4800931A4601F0C4FD81
:1036E000750005F01E0545EAD615023D182303FBBB
:1036F000054393F83020D20709D42046FFF715FE82
:10370000D8B11349134840F2EF4201F077FB93F828
:1037100031301BB131462046FFF71CFF182303FB55
:103720000545314695F8303023F0020385F83030F6
:10373000D4F8EC020368DB6D984723689B6F204642
:1037400002B0BDE87040184794B800080401158025
:1037500048B70008EDB80008036810B50446DB6FF1
:10376000984794F81C33042B02D0B4F8FA32A3B96A
:1037700094F8F632022B10D1B4F8FA1231F08F001F
:103780000BD111F00F030AD0B4F8F83223B9204658
:10379000C9B2FFF793FF012010BD0020FCE71846D7
:1037A000FAE700002DE9FF419846036803920E46B0
:1037B0005B6F0746984736F08F0403D116F00F0F62
:1037C000039A06D100232049204800931A4601F0AD
:1037D0004BFD750005F01E0545EAD6151823023D80
:1037E00003FB057595F83030DB070AD43846FFF740
:1037F0009CFD044688B11649164840F2AD5201F0CE
:10380000FDFAAB8D434505D913491448009423466E
:103810002246DCE795F8311039B13B6838469B6F9A
:103820009847204604B0BDE8F081D7F8EC02016863
:103830000C6E3146A04704460028EED095F8313092
:10384000013385F83130E8E794B8000804011580A9
:1038500048B70008EDB80008FBB80008050115805E
:10386000036837B55B6F0D460446984715F0700F37
:1038700001D12A0706D100231549164800931A469C
:1038800001F0F2FC6B0003F01E0343EAD513023B88
:10389000182202FB034393F83030DB070AD420469A
:1038A000FFF743FD054660B10B490C4840F2E75273
:1038B00001F0A4FAD4F8EC02036829465B6E98473D
:1038C0000546236820469B6F9847284603B030BDC5
:1038D00094B800080401158048B70008EDB8000846
:1038E0002DE9FF419846036803920E465B6F074639
:1038F000984736F08F0503D116F00F0F039A06D1C3
:1039000000232249224800931A4601F0ADFC7400BE
:1039100004F01E0444EAD6141823023C03FB04748A
:1039200094F83030DB070AD43846FFF7FEFC054632
:1039300088B1184918484FF4C16201F05FFAA38DAD
:10394000434505D21549164800952B462A46DCE723
:1039500094F831303BB13B6838469B6F9847284616
:1039600004B0BDE8F081D7F8EC02036831469D6EE3
:103970004346A847054638B194F83130A4F82E8064
:10398000013384F83130E6E7E085E4E74CB900081C
:103990000401158048B70008EDB800086AB90008AE
:1039A00005011580036837B55B6F0D4604469847DF
:1039B00015F0700F01D1290706D1002312491348D1
:1039C00000931A4601F050FC6A0002F01E0242EA1F
:1039D000D513023B182202FB034393F83020D20791
:1039E0000AD42046FFF7A1FC054630B10849094832
:1039F00040F2476201F002FADD8D236820469B6F9A
:103A00009847284603B030BD94B8000804011580DB
:103A100048B70008EDB80008036870B50446DB6FCE
:103A20000D46984794F81C2384F81C53AA42D3B23D
:103A300026D0032B09D9032D8CBF00260126012B8C
:103A400005D9012D03D88EB103E00026F7E786B132
:103A500000264FF43472002104F11C0006F0F2FC41
:103A6000002384F81D3384F8F23216B12046FFF7A4
:103A700002FC2368294620461B6EBDE870401847AB
:103A800070BD036810B50446DB6F9847D4F8EC02AC
:103A900094F8F8120368DB6A9847B4F8F8322BB947
:103AA00002212046FFF7B8FF012010BD0321F8E7EF
:103AB000036810B50446DB6F984794F8F81284F851
:103AC0001D1351B9D4F8EC0203681B6A984703210F
:103AD0002046FFF7A1FF012010BD012384F8F23238
:103AE000032384F80C3323682046DB6E9847F2E703
:103AF000036810B50446DB6F984794F8F532C3BBF2
:103B000094F8F7320B2B34D8DFE803F0060B3310B0
:103B100033151A331F24292E2046BDE81040FFF725
:103B200069BA2046BDE81040FFF716BE2046BDE842
:103B30001040FFF79DBD2046BDE81040FFF7A1BF34
:103B40002046BDE81040FFF719B82046BDE81040F8
:103B5000FFF7F2B92046BDE81040FFF7A9BF2046A5
:103B6000BDE81040FFF7F7B92046BDE81040FFF769
:103B70000BBA002010BD036810B5DB6F04469847F0
:103B8000002084F80C0394F82D0394F81033D4E942
:103B9000C52190B1012B0BD8022384F80C33236884
:103BA00004F53D7120469B6EBDE810400122184788
:103BB0002046BDE81040FFF71EBB042B12D1204663
:103BC000FFF796FF30B9D4F8EC020368BDE8104067
:103BD000DB6C184794F80C3373B92046BDE81040ED
:103BE000FFF7B0BA032BEED00120C4E9C02184F85E
:103BF0000A0384F80833F0E710BD036810B5DB6FE3
:103C00000446984720460221FFF706FF002384F868
:103C10001E332046FFF72FFB23682046DB6DBDE8EF
:103C200010401847036810B504465B6F984794F836
:103C3000F1323BB1D4F8EC0203689B69984700234A
:103C400084F8F13294F81C33012B03D9012120466A
:103C5000FFF7E2FE002384F81D3384F81E33236847
:103C600020469B6FBDE810401847036810B5044616
:103C70005B6F984794F8F03253B12046FFF7D2FFBC
:103C8000D4F8EC020368DB689847002384F8F0322C
:103C9000236820469B6FBDE810401847084B10B5BD
:103CA000036090F8F03204462BB1064906484FF401
:103CB000AC6201F0A3F8FFF7D8FF204610BD00BFAB
:103CC000B4B9000848B700088BB9000838B50368D4
:103CD0000D46DB6F0446984745B994F81C332BB169
:103CE00029462046BDE83840FFF796BE38BD036838
:103CF00070B50446DB6F984794F82D3394F8106341
:103D000003B97EB92046FFF710FB054650B90146BE
:103D10004FF4347204F11C0006F094FB84F81D5338
:103D200084F8F252002384F80C3394F82D3323B135
:103D30002046BDE87040FFF75EBAD4F8EC02036895
:103D400056B1DB69984720460421FFF765FE2046FF
:103D5000BDE87040FFF7F6B9BDE87040DB6C18476E
:103D6000036837B5DB6F0C460546984714F0700FB3
:103D700001D1230706D100231249134800931A46A4
:103D800001F072FA630003F01E0343EAD4118B1EA4
:103D9000182000FB035393F831202AB90B490C4833
:103DA00040F2D73201F02AF8013900FB0150013A04
:103DB000043083F83120C3680BB1FEF7ABFB03B0CE
:103DC00030BD00BF94B800080401158048B7000852
:103DD00099B90008036837B5DB6F0C46054698476C
:103DE00014F0700F01D1230706D1002312491348A4
:103DF00000931A4601F038FA630003F01E0343EA09
:103E0000D4118B1E182000FB035393F831202AB9DC
:103E10000B490C4840F2F23200F0F0FF013900FB90
:103E20000150013A043083F83120C3680BB1FEF72A
:103E300071FB03B030BD00BF94B8000804011580C9
:103E400048B7000899B9000870477047704710B527
:103E500003680446D3F880309847B4F8380310BD9F
:103E600000487047A6BB00080048704790BB000898
:103E700070B5002388B0CDE902331B23A0F8383396
:103E8000214B019302238DF8093040F2A113ADF8C4
:103E90000A3040F67503ADF80C3015238DF80E305E
:103EA0004FF62573ADF8103095238DF812308DF84C
:103EB000183040F20923ADF81A3040F2912390F8FF
:103EC0002914ADF81C30C02390F828248DF8131065
:103ED0008DF81E300D498DF8192000F23A33059106
:103EE00001AA07AE1D46144603CCB44218605960BF
:103EF000224603F10803F6D12188A2789A70284659
:103F0000198008B070BD00BF06ABFF0A090181022D
:103F1000F0B504468DB000296DD1282201A806F025
:103F200091FA23682046D3F88430984723680546E1
:103F3000D3F884302046984740F20923ADF8043086
:103F400029238DF8063040F20113ADF80830C02364
:103F50008DF80B30092300128DF80D3004238DF8F5
:103F60000E308DF81E00022307208DF811308DF8D9
:103F70001F0042F2091305200322ADF816308DF818
:103F8000200040F2111344F2030094F8556394F8B2
:103F900056138DF81220ADF8183022270123ADF802
:103FA00022008DF8292040F20750402204F2753497
:103FB0008DF81B308DF81D508DF821608DF825305F
:103FC0008DF82C308DF81C70ADF826008DF8281077
:103FD0008DF82A2001AB0BAE25461A4603CAB24221
:103FE00020606160134604F10804F6D11378237051
:103FF00028460DB0F0BD0020FBE700000B4B10B5CC
:1040000004460360FFF731FE04F55B70FEF7DDFC4C
:1040100004F55870FEF7D9FC04F55670FEF7D5FC90
:104020002046FFF73BFE204610BD00BFFCBA00084B
:1040300010B50446FFF7E2FF204640F22C4101F0A4
:10404000FAFB204610BD406AFFF76FB910B5034B6D
:1040500003600446FEF744FB204610BDE0BA0008AA
:1040600010B50446FFF7F2FF2046282101F0E3FBDC
:10407000204610BD10B5034B03600446FEF730FB2D
:10408000204610BDC8BA000810B50446FFF7F2FF7D
:104090002046302101F0CFFB204610BD042910B589
:1040A000044614D090F8683333B990F85513FFF7ED
:1040B00051FA012384F8683394F874333BB994F8C7
:1040C00056132046FFF746FA012384F8743304F5AB
:1040D0005870FEF72FFC04F55B70FEF72BFC04F51F
:1040E0005670BDE81040FEF725BC70B54A7804460E
:1040F0000E461AB100252846042121E0CB78062B74
:10410000F8D189880912212932D0222939D10368AE
:10411000D3F8803098470028ECD023682046D3F8A5
:10412000843098470028E5D023682046D3F88430AF
:10413000984723680546D3F88030204698470121E8
:104140007278012A0DD1F378092B0AD1B38884F84B
:10415000E83333890133C4F8E43304F2E93011461B
:104160003F252B4602462046BDE87040FEF7C0BF03
:10417000FFF76EF900280BBF002509250421012156
:10418000DEE71546B7E70121FEF7BEBD10B50368AF
:104190000446DB6F984720460121BDE81040FEF73A
:1041A00005BF036810B50446DB6F984794F85513B4
:1041B0002046FFF7F7FB012384F8683304F55870B5
:1041C000FEF7B8FB94F8683333B123682046D3F880
:1041D0009030BDE81040184710BD036810B5044684
:1041E000DB6F984794F856132046FFF739FB0123FD
:1041F000C4F8E40384F8743304F55B70FEF79AFBAB
:1042000094F8743333B123682046D3F88C30BDE87A
:104210001040184710BD00007FB5154604460E46F5
:10422000FFF759F901466846FEF7CAFA4021684689
:10423000FEF738FB402203216846FEF729FB4022A7
:1042400084F8550303216846FEF727FB84F85603DC
:104250006846FEF7BDFA20B90C490D488F2200F0E0
:10426000CDFD012384F8683384F87433002384F887
:10427000286484F82954A4F83833C4F8A033C4F867
:10428000E4336846FEF7A3FA04B070BD84BA0008B0
:10429000ADBA000873B51E46BDF820300093044641
:1042A000BDF81C301546BDF81820FFF719F90B4B67
:1042B000236004F55670FEF737FB04F55870FEF7DF
:1042C00033FB04F55B70FEF72FFB20463246294690
:1042D000FFF7A2FF204602B070BD00BFFCBA000885
:1042E00010B503688AB05B6F044698476846FEF7CE
:1042F000EBF969460A4B009304F556700994FEF7F2
:1043000031FB236820469B6F9847064B00211A68B3
:104310006846FEF71BFA6846FFF798FE0AB010BD24
:10432000E0BA0008F0BA000830B503688DB05B6FE2
:1043300004460D4698476846FEF7C6F9CDE909459B
:1043400069460D4B0093002504F558708DF82C50EC
:10435000FEF708FB236820469B6F9847074B2946CA
:104360001A686846FEF7F2F968469DF82C40FFF798
:1043700081FE20460DB030BDC8BA0008F0BA000872
:1043800037B5036801915B6F044698472046FEF7F6
:10439000CCFF0199054630B9236820469B6F9847AA
:1043A000284603B030BD94F86853002DF4D0442261
:1043B00004F5687005F0ACFFD4F8A03394F85513F9
:1043C00004F569722046FFF78BFA002384F86833FE
:1043D000E2E710B50446406AFEF7A7FF18B984F873
:1043E0002C00012010BDD4E90901FFF7C9FF002806
:1043F000F8D0012384F82C30F4E7036870B55B6FC4
:1044000004460E4698472046FEF78FFF054628B91A
:10441000236820469B6F9847284670BD94F87453D4
:10442000002DF5D0442204F57971304605F070FF77
:10443000402394F8561304F57A722046FFF7B2F938
:10444000002384F87433E3E7F0B58BB0164610AA66
:1044500004460D4692E803001F4604AB83E80300C0
:10446000094B0993059B0893069407900AAB13E93F
:104470000F008DE80F003B46324629462046FEF7E6
:104480007DFF0BB0F0BD00BFE729000830B5012962
:1044900087B0044602D10021FEF72AFD174B029394
:1044A0000025294618468DE80300039594F8551316
:1044B000032340222046FFF7C7FF114BCDE9043507
:1044C00006AB13E9030040228DE80300032394F8B0
:1044D00056132046FFF7B8FF94F85613402304F50F
:1044E0007A722046FFF75EF90121204684F8745362
:1044F00007B0BDE83040FEF7FBBC00BFA341000899
:10450000DB410008112070477047704790F8443431
:10451000012B04D1A023A0F838330548704723B9F4
:10452000AD23A0F83833034870470020704700BF20
:10453000F4BD000894BE00084FF0FF307047000043
:104540000E4B03F1080210B5026003F1AC0203F553
:1045500086730446C0F82C24C0F83034FFF785FB7E
:1045600004F5896001F0F0FC04F22C4000F02EFB11
:104570002046FFF743FD204610BD00BFE0BC000809
:10458000A0F22C40FFF7DCBFA0F58660FFF7D8BF94
:1045900010B50446FFF7D4FF204640F26C4101F00D
:1045A0004AF9204610BDA0F58660FFF7F1BFA0F2E2
:1045B0002C40FFF7EDBF10B5036892B00446DB6FE7
:1045C000984701A92046FFF718FF9DF8093003F02E
:1045D000070384F8463412B010BD4FF0FF30704727
:1045E000F0B585B0044616461F460D4603F09CFF05
:1045F000BDF82C300293BDF82830CDE900730023BC
:104600001A4601462046FFF745FE002104F22C40E1
:1046100000F0B2FA104B236003F1A40203F5827399
:10462000C4F83034C4F82C2404F5896001F04CFC43
:10463000002384F8463484F8453484F844642046E2
:104640003DB1FEF782FE2046FFF74AFE204605B048
:10465000F0BDFEF74BFEF9E7E8BC0008F0B500F549
:10466000896793B0054638460C46164601F034FC7F
:1046700001238DF80830124B8DF8096013F81430BF
:104680008DF80B300026092301A928468DF80A6011
:1046900003968DF810600193FFF746FE044628B993
:1046A000384601F037FC204613B0F0BD01A928467A
:1046B0008DF809608DF80B60FFF736FE0446EFE7D2
:1046C000AEBB000870B500F58966044630460D465D
:1046D00001F002FC064B03EB4503E9B25A78204691
:1046E000FFF7BCFF0446304601F014FC204670BDC5
:1046F000AEBB0008A0F22C40FFF7E4BFEFF310833D
:1047000072B6054A117831B90449DB4303F001035D
:104710000B700123137070477F1900207E19002051
:1047200008B5EFF31083DB4313F0010304D006490F
:104730000648362200F062FB054A1370054B1B78D1
:1047400003B162B608BD00BF41BF000873BF0008D7
:104750007F1900207E19002070B50E4604461546CC
:1047600003F09CFF013609D02046002103F0BAFF78
:1047700029462046BDE8704003F0B0BF70BD38B593
:10478000036804460D465AB1826813602046012131
:1047900003F0A8FF29462046BDE8384003F09EBF3D
:1047A000C2681B04F1E70022FFF7D6BF37B50D46FC
:1047B0000446019203F072FF013507D0019A0021EF
:1047C000204603B0BDE83040FFF7D9BF03B030BD8D
:1047D0000022FFF7EBBF0000884207B502460AD06F
:1047E000431C08D0013105D000230549054800933A
:1047F00000F03AFD0146084603B05DF804FB00BF37
:104800008DBF000830010180B1F900305A1C01D180
:1048100018467047834201D1486870470C31F3E76E
:10482000421C13B504460AD0FFF7EEFF431C06D125
:104830000023044904480093224600F015FD02B00D
:1048400010BD00BF9EBF000830010180B1F90030EB
:104850005A1C01D118467047834201D188687047BD
:104860000C31F3E708B5BFF35F8F164B1968080AE0
:1048700010F0FC0FC1F3072104D1134913483B2268
:1048800000F0BCFA00225A6010468A4216D110226B
:10489000DA600F4A1A611322DA600E4A1A61112295
:1048A000DA600D4A1A610D4ADA600D4A1A61072270
:1048B0005A60BFF34F8FBFF36F8F08BD9A601861C6
:1048C0000132E2E790ED00E0BEBF0008E7BF00085C
:1048D00039F00206390702133FF50B13120000806E
:1048E00039000213B1F90C20B1F9041004F086BAB2
:1048F000007B704738B50D4B03600023C0E90131E0
:10490000027304460A480D46FDF7CEFD01F0E4FAB5
:1049100055B1084B1A6862601C600548FDF7C4FD7C
:1049200001F0F8FA204638BD6560F6E704C00008DB
:104930008419002080190020144B10B50360044630
:104940001348FDF7B1FD01F0C7FAA3682BB1114977
:1049500062680B68A34212D10A600F4B0C481A68B8
:10496000A24204BF00221A60FDF79EFD01F0D2FAB8
:10497000237B13B9201F00F063FF204610BD1946AA
:104980005B68A342FBD14A60E7E700BF04C00008B0
:104990008419002080190020AC19002010B50446AD
:1049A000FFF7CAFF2046102100F045FF204610BD4A
:1049B000F8B5064617480D46FDF776FD01F08CFA6E
:1049C000154B1C68A4B1A76887B1384606F018F9E2
:1049D000A8420BD12A463146384605F069FC28B971
:1049E0000C48FDF761FD01F095FA11E06468E9E714
:1049F000072DF5D109482A46314605F059FC002813
:104A0000EED10448FDF750FD01F084FA044B1C6818
:104A10002046F8BD8419002080190020F4BF00084A
:104A2000AC19002000207047036870B51B69012293
:104A3000002104469847051E0DDB236802221B69EE
:104A40000021204698472368064629461B69002214
:104A5000204698473546284670BD000070B50E4682
:104A60000025C0E900550F490446304606F036F9E6
:104A700030442060294623681A782F2A07D1013351
:104A8000236051B9084909482A2200F0B7F9002AE1
:104A9000F7D0013301312360EDE7FFF789FF606054
:104AA000204670BD5CC000085EC0000886C00008DB
:104AB00000687047406808B520B1FFF719FF431E32
:104AC0005842584108BD10B50446FFF7F3FF10B136
:104AD000606800B1043810BD406808B520B1FFF728
:104AE00007FFB0FA80F0400908BD10B50446FFF793
:104AF000F3FF10B1606800B1043810BD40680038A1
:104B000018BF0120704700207047F8B503681B6D7F
:104B10000D4604468F1898472E46BE42236806D09D
:104B20009B6C16F8011B204698470130F5D123688D
:104B300020465B6D9847701BF8BDF8B503681B6D88
:104B40000D4604468F1898472E46BE42236807D06C
:104B5000DB6C20469847431C02D006F8010BF4E7B3
:104B6000236820465B6D9847701BF8BD0020704796
:104B700000207047704700000F4B13B50022044619
:104B800040F8043BFFF7B6FE0C4B236060336360D4
:104B9000002363610A49204600F0B0FE03466061CD
:104BA00028B9009002460749074800F05DFB00F075
:104BB0000DFC204602B010BD14C0000810C1000852
:104BC0008FC0000892C00008190101800A4B03F150
:104BD0000802683310B5044602604360406904F07F
:104BE0002FFA064B23602046503340F8043FFFF76E
:104BF000A3FE204610BD00BF08C10008B0C00008D9
:104C0000102300F007B8202300F004B8302300F090
:104C100001B840239C46F0B404AE7546E80801D3C1
:104C2000EFF309860E4F0FCE0FC70FBC0FC74046DC
:104C3000494652465B460FC71DCE3100A60A00D337
:104C400004316E0900D248311FC7EFF3098069466D
:104C5000EFF3148663C76046014900F079F800BF9E
:104C6000A4310020F0B52C4E2C4F85B000243546E1
:104C7000214656F8042B3846013400F04DF90D2C2E
:104C8000F6D1AB6C02936B6C01932B6C244C0093AC
:104C9000D5E90E23696B234800F03EF921682248CC
:104CA00000F03AF9E16AA26AA36AA06A266BE76B90
:104CB000000CCDE901670090C3F307231B48D2B273
:104CC00000F02AF9A36A1E0603D5616B184800F0AC
:104CD00023F9A36A180403D5A16B164800F01CF948
:104CE000EB6C190712D5144800F016F92B6DDA0792
:104CF0000FD5124800F010F9EB6C5B074CBF104861
:104D0000104805B0BDE8F04000F006B90E4800F0CC
:104D100003F90E48EEE700BFA431002078C1000877
:104D200000ED00E086C10008D5C10008E3C100081D
:104D300032C2000840C200084EC200085DC200082E
:104D40008DC2000899C200087DC200086AC200082E
:104D500007B504460D461A48012100F063F868BB08
:104D6000184800F0D9F8302C19D0402C1CD0202C39
:104D70001FD11548154C00F0CFF8154800F0CCF8BD
:104D8000FFF770FF134800F0C7F80D4B00221A70B0
:104D90000023114900932A46204600F065FA0F4887
:104DA0000F4C00F0B9F8E8E70E480F4C00F0B4F8EB
:104DB000E3E70E480E4C00F0AFF8DEE70024E7E72B
:104DC000F8310020A5C20008CEC200083E01FF80D5
:104DD000FBC2000806C3000825C30008DDC20008A6
:104DE0003F01FF80E6C200084001FF80F1C20008D9
:104DF0003D01FF8004F0A2BF04F0B8BB07B50B462D
:104E0000009201460022014800F02EFA4401FF8082
:104E100003460122D3E84F0FC3E8412FC0B2002957
:104E2000F8D17047D0E84F3FC0E8421FD8B2704772
:104E300000B589B000F08AF83C2101A8FFF7C8FC52
:104E4000114E124D0424039B019A1A60304600F063
:104E500013FE019B049A1B041360304600F00CFE05
:104E6000013CF0D10424039B019A1A60284600F00B
:104E700003FE019B049A1B041360284600F0FCFD0E
:104E8000013CF0D1DEE700BFF0490200801A0600C5
:104E900073B5002201460446022000F041FB0D26B6
:104EA00000F054F80022254614F8013B1BB900F02D
:104EB00063F802B070BD0A2B09D10D2A07D0012278
:104EC0000DF1070102208DF8076000F029FB012297
:104ED0002946022000F024FB14F8012CE3E700002F
:104EE00000B5A3B002460B4601A8842100F0B4FF30
:104EF000832806D9074B1A681B79CDF883208DF8D3
:104F00008730002802DD01A8FFF7C2FF23B05DF85B
:104F100004FB00BF35C300080FB407B504A951F85E
:104F2000040B0191FFF7DCFF03B05DF804EB04B064
:104F30007047EFF31080C04300F001007047EFF3BB
:104F40000580003818BF01207047000008B5FFF742
:104F5000D5FB064A1368591C04D1054905483F2270
:104F6000FFF74CFF0133136008BD00BFB0190020EC
:104F70003AC3000865C30008044A136823B1013B23
:104F800013600BB9FFF7CCBB704700BFB01900200E
:104F900008B50B48FFF73CFF28B1FFF7D7FFBFF379
:104FA0004F8F20BFFDE7FFF7CAFF08B1FFF740FFB3
:104FB000FFF7BFFF0028F9D0012000F019FC00BF67
:104FC000F01900202DE9FF41464C0E462168C1F33F
:104FD0004173032B0CBF4D428DB2C1F30743804692
:104FE000174641482A46FFF797FF6FF498731D4410
:104FF000132D0FD8DFE805F00A585B5E6167646A1D
:105000000E0E0E0E0E0E0E0E0E0E0E6DA168374811
:10501000FFF782FF4046FFF73BFF61683448FFF728
:105020007BFF4EB13348FFF733FF3046FFF730FFC9
:1050300031483946FFF770FFA1683048FFF76CFF31
:1050400023682F4A1A44012A05D92E4A934202D0D6
:10505000033A934241D1A06820B1C06C80F00800AF
:10506000C0F3C000E368002B39D05968264A0029F4
:1050700008BF1146E2690392A26902926269019235
:1050800022690092214D224A002818BF2A46214851
:10509000FFF742FF21682048FFF73EFF1F4804B09A
:1050A000BDE8F041FFF738BFA1681D48B0E7A1682F
:1050B0001C48ADE7A1681C48AAE7A1681B48A7E700
:1050C000A1681B48A4E7A1681A48A1E7A1681A488B
:1050D0009EE71A48FFF720FF9CE70020C2E70A4935
:1050E000C8E700BFF4190020ABC30008FCC30008E8
:1050F000A4C40008B5C40008BDC40008C1C40008A9
:10510000C2FE007F4001FF8096C30008A0C30008D4
:1051100024C30008D5C400082EC500087DC50008BA
:1051200012C4000822C4000831C4000844C40008A6
:1051300058C400086CC400087BC4000891C400086F
:1051400070470000F0B5294D8FB035EA200528BF23
:1051500005460E4617460021302202A805F072F9D6
:10516000234B01952B44012B01AC039605D9214B10
:105170009D4202D0033B9D4232D1F36B0293736B8D
:1051800008931D4B5B690493DA6B05925A6B1B6B9A
:1051900006920793FFF7DAFE184A13680133012BD2
:1051A000136009D126460FCE154D0FC50FCE0FC582
:1051B0000FCE0FC533682B600FCC124D0FC50FCC2F
:1051C0000FC50FCC0FC523682B600F4B1B68A5F1D3
:1051D000300043B19847FFF7CFFE00200FB0F0BD7D
:1051E00002970894CDE7FFF7ABFFF4E70101FF80DA
:1051F000C2FE007F4001FF809C010020B419002006
:10520000BC190020F4190020B81900200FB41FB5F4
:105210000D48CDF804E00121FFF704FE019A044691
:1052200080B901460948FFF78DFF0948224621460B
:10523000FFF7C8FE069807A90391FFF751FE05483E
:10524000FFF726FEFFF7A4FEF83100200001FF80E3
:1052500097C5000823C3000800207047014B187849
:10526000C0B27047F831002080B506460C460A48A7
:105270000121F04617461D46FFF7D4FD48B94246C6
:1052800039463046FFF75EFF029A29462046FFF76F
:1052900099FEFFF77DFE00BFF83100207047704790
:1052A0006FF01C0070476FF01500704701207047C9
:1052B0000020704770470000034B186818B14FF08A
:1052C000FF31FCF759B8704760310020024B186875
:1052D00008B1FCF769B8704760310020F8B5074E97
:1052E00015460C468F18BC4205D014F8011B3046F9
:1052F00002F01EFEF7E72846F8BD00BFC0320020CE
:1053000038B511F001048DB205D0084803F004FD52
:10531000041E18BF0124EB0605D5044803F012FD56
:1053200008B144F01004204638BD00BFC032002050
:1053300010B5044604F0FAFC204610BD10B50C462A
:105340002AB1044802F0D8FD2070012010BD10469B
:10535000FCE700BFC032002038B5084B0360084BA3
:105360001B680446154633B90648FFF7BBFA0548E3
:10537000294603F01DFD204638BD00BFB0C6000819
:1053800028210020C03200200020704700207047F4
:1053900008B5012000F02CFA074A084913681844A0
:1053A000884289BF064B10600C224FF0FF308CBF43
:1053B0001A601846704700BF4403002000FC00201C
:1053C000303300200120704701207047002105F094
:1053D0007FB908B5FCF73CFF08BD08B5FCF740FFF6
:1053E00008BD000010B50446037803F00303012B49
:1053F00008D0FFF761FF237803F00302012A03D1ED
:10540000FFF764FF00200AE02AB10549054840F291
:105410009A62FFF7F3FC43F002032370012010BDF2
:10542000ACC50008D9C5000808B5037803F003022D
:10543000022A05D00749084840F2A362FFF7DEFCC4
:1054400023F0030343F001030370BDE80840FFF7B6
:105450003DBF00BFACC50008F7C500083F2870B5C8
:1054600004462EDC184D55F820305A1C13D1022862
:1054700011DCFFF78BFF034658B92046FFF784FF86
:10548000034630B9114E3378BFF35B8FDB0704D589
:105490000F4B45F82430184670BD3046FFF7A2FF89
:1054A0000028F5D00B490A484FF41652FFF754FF75
:1054B0003046FFF7B9FF084A08490548FFF782FF61
:1054C000E6E70023E7E700BF44020020281A002097
:1054D000D41A0020F8C6000898010020B552000830
:1054E00038B50546FFF7BAFF0B4B002443F82540BB
:1054F00030B903F039FD092303604FF0FF3038BDA8
:1055000003685B699847051E04DA03F02DFD6D42C0
:105510000560F2E72046F2E744020020FFF7E0BF13
:1055200013B5CDE90021FFF799FFDDE9002140B96E
:1055300003F01AFD092303604FF0FF34204602B048
:1055400010BD0368DB689847041EF7DA03F00CFD12
:1055500064420460F0E713B5CDE90021FFF77EFF58
:10556000DDE9002140B903F0FFFC092303604FF09F
:10557000FF34204602B010BD03689B689847041EA4
:10558000F7DA03F0F1FC64420460F0E710B5FFF7CE
:1055900065FF044628B903F0E7FC092303602046B1
:1055A00010BD0368DB699847041EF8DA03F0DCFCE1
:1055B000644204600024F2E737B54023CDF80100CF
:1055C000054668468DF8003003F046FF044630B1CA
:1055D0002846FFF7DBFF10B12046FFF7F7FE204615
:1055E00003B030BD2DE9F04F85B006460F4690461A
:1055F000FFF7A5FC054630B100232D492D48009347
:105600003246FFF731FEFFF794FC0028F4D0B8F1E2
:10561000000F09DA03F0A8FC162303604FF0FF34F3
:10562000204605B0BDE8F08F3046FFF7AFFF0446D7
:1056300058B3214ADFF884A0935D2C4691464FF081
:105640000D0BA84521DD7A5D0A2A1BD10D2B039392
:1056500018D0AC420CDA2A1B39193046FFF760FF2C
:105660000028039BDADB0444A542D9DC09F80630A4
:10567000012251463046FFF753FF0028CEDBCFD042
:1056800009F806B07B5D0135DBE7A045C8DDA8EB76
:10569000040239193046FFF743FF0028BEDB241807
:1056A0001FBF3F19044B17F8012C9A55B8E700BFEC
:1056B0002EC600082F0101806C1A002068C6000861
:1056C000FFF764BF7FB504460D461646FFF737FC6B
:1056D00030B100231D491E4800932246FFF7C4FD48
:1056E000FFF727FC0028F4D0002E06DA03F03CFC7C
:1056F000162303604FF0FF3018E02046FFF746FF07
:10570000E8B1144E01220DF10F012046FFF723FFEF
:105710000028EFDB0AD09DF80F300D2B08D1325D49
:105720000A2A3355EED00A232B70012004B070BD35
:105730000A2B02D1325D0D2AF3E73355F4E73246E6
:1057400029462046FFF707FFF0E700BF6AC60008BA
:105750002F0101802C1A002013B5CDE90021FFF79D
:105760007DFEDDE9002140B903F0FEFB0923036063
:105770004FF0FF34204602B010BD03681B69984704
:10578000041EF7DA03F0F0FB64420460F0E7FFF771
:10579000E3BF10B5FFF762FE30B903F0E5FB092364
:1057A00003604FF0FF3010BD03689B699847041EEB
:1057B00004DA03F0D9FB64420460F2E70020F2E768
:1057C0000A4D08B52B680446986803F007FD2B685E
:1057D000D86803F003FD0120FFF7DBFF0220FFF78D
:1057E000D8FF0CB1FFF724FBFEE700BF54030020F5
:1057F00008B5FFF7E5FF38B50D46FFF72FFE044665
:1058000030B903F0B1FB092303604FF0FF3038BD1E
:105810000368DB699847002814BF4FF400534FF426
:1058200000436B60236820469B6A984728610020EC
:10583000EDE7FFF7E0BF04F079BA04F077BA0000B3
:1058400010B504460B48FCF72FFE00F045FB0A4A52
:105850004023002152F8040BA04208BF42F8041C68
:10586000013BF7D10348FCF71FFEBDE8104000F0F4
:1058700051BB00BFAC1A00204402002010B51248F2
:10588000FCF712FE00F028FB104B032453F82420F1
:105890007AB10134402CF9D103F066FB1823036080
:1058A0000948FCF701FE00F035FB4FF0FF342046BD
:1058B00010BD4FF0FF32044843F82420FCF7F4FDFC
:1058C00000F028FBF3E700BFAC1A002044020020E0
:1058D00010B50446FFF7D2FF002807DB044B054A4A
:1058E00043F8204000231354034A135410BD00BF53
:1058F000440200202C1A00206C1A002073B50646C2
:105900000191FFF7E5FF051E13DB0199FFF754FE38
:10591000044630B9084B53F82520964204D143F889
:105920002500204602B070BD03F01EFB0923036072
:10593000F7E70024F5E700BF440200200EB42DE98C
:10594000F04187B00190FFF799FF041E13DB00239D
:105950000199039304A8FFF781F804A8FFF7CEF894
:105960001E4E054668B903F0FFFA1323036046F89C
:1059700024504FF0FF34204607B0BDE8F04103B09B
:10598000704704A8FFF7A8F8074604A85FB1FFF71F
:10599000ACF80390039B124A46F8243000231355B9
:1059A000104A1355E7E7FFF78EF805460028DAD0CE
:1059B000036804A8D3F80880FFF77AF80D9B024625
:1059C00003A92846C04705460028E3D003F0CCFAD7
:1059D0006D42056046F82470CBE700BF440200200A
:1059E0002C1A00206C1A002070B50E461549054689
:1059F00004F09AFF044618B9FFF730FD204670BD49
:105A00001149284604F090FF20B90120FFF726FD38
:105A10000124F3E70D49284604F086FF20B902204F
:105A2000FFF71CFD0224E9E72B78402B02D1D5F8C3
:105A30000140E3E726F400412846BDE87040FFF747
:105A40007DBF00BF18C700081FC7000810C70008A7
:105A500000F0CCBA054B064A1B68B3FBF2F358437F
:105A600041F28833B0FBF3F0024B1847500300209B
:105A700040420F0031C7000810B50446B4F5806FEE
:105A800007DC002C04DD4FF47A706043FFF7E2FF7F
:105A900010BD4FF47A20A4F58064FFF7DBFFEDE73B
:105AA00070B5144612686FF00046B242054604987D
:105AB00007D238B10146184603F0D6FC431C05D185
:105AC000206070BD15B18A4238BFAB5423680133E2
:105AD0002360F6E72DE9F74F1C4B1D4E8846DDE9A4
